{"contracts/gelato-vrf/SimpleVRFContract.sol":{"SimpleVRFContract":{"abi":[{"inputs":[{"internalType":"address","name":"dedicatedMsgSender","type":"address"}],"stateMutability":"nonpayable","type":"constructor"},{"anonymous":false,"inputs":[{"indexed":true,"internalType":"uint256","name":"nonce","type":"uint256"},{"components":[{"internalType":"uint256","name":"requestTime","type":"uint256"},{"internalType":"uint256","name":"requestBlock","type":"uint256"},{"internalType":"uint256","name":"fulfilledTime","type":"uint256"},{"internalType":"uint256","name":"fulfilledBlock","type":"uint256"},{"internalType":"uint256","name":"randomness","type":"uint256"}],"indexed":false,"internalType":"struct SimpleVRFContract.Request","name":"","type":"tuple"}],"name":"RandomnessFulfilled","type":"event"},{"anonymous":false,"inputs":[{"indexed":false,"internalType":"uint64","name":"requestId","type":"uint64"}],"name":"RandomnessRequested","type":"event"},{"anonymous":false,"inputs":[{"indexed":false,"internalType":"uint256","name":"round","type":"uint256"},{"indexed":false,"internalType":"bytes","name":"data","type":"bytes"}],"name":"RequestedRandomness","type":"event"},{"inputs":[{"internalType":"uint256","name":"randomness","type":"uint256"},{"internalType":"bytes","name":"dataWithRound","type":"bytes"}],"name":"fulfillRandomness","outputs":[],"stateMutability":"nonpayable","type":"function"},{"inputs":[],"name":"lastRequestId","outputs":[{"internalType":"uint64","name":"","type":"uint64"}],"stateMutability":"view","type":"function"},{"inputs":[],"name":"latestRandomness","outputs":[{"internalType":"bytes32","name":"","type":"bytes32"}],"stateMutability":"view","type":"function"},{"inputs":[],"name":"nonce","outputs":[{"internalType":"uint256","name":"","type":"uint256"}],"stateMutability":"view","type":"function"},{"inputs":[{"internalType":"uint256","name":"","type":"uint256"}],"name":"requestPending","outputs":[{"internalType":"bool","name":"","type":"bool"}],"stateMutability":"view","type":"function"},{"inputs":[{"internalType":"bytes","name":"_data","type":"bytes"}],"name":"requestRandomness","outputs":[],"stateMutability":"nonpayable","type":"function"},{"inputs":[{"internalType":"uint256","name":"","type":"uint256"}],"name":"requestedHash","outputs":[{"internalType":"bytes32","name":"","type":"bytes32"}],"stateMutability":"view","type":"function"},{"inputs":[{"internalType":"uint256","name":"","type":"uint256"}],"name":"requests","outputs":[{"internalType":"uint256","name":"requestTime","type":"uint256"},{"internalType":"uint256","name":"requestBlock","type":"uint256"},{"internalType":"uint256","name":"fulfilledTime","type":"uint256"},{"internalType":"uint256","name":"fulfilledBlock","type":"uint256"},{"internalType":"uint256","name":"randomness","type":"uint256"}],"stateMutability":"view","type":"function"}],"devdoc":{"events":{"RequestedRandomness(uint256,bytes)":{"params":{"data":"Additional data associated with the request."}}},"kind":"dev","methods":{"fulfillRandomness(uint256,bytes)":{"params":{"dataWithRound":"Additional data provided by Gelato VRF containing request details.","randomness":"The random number generated by Gelato VRF."}}},"version":1},"evm":{"bytecode":{"linkReferences":{},"object":"60a06040523480156200001157600080fd5b5060405162001370380380620013708339818101604052810190620000379190620000dc565b8073ffffffffffffffffffffffffffffffffffffffff1660808173ffffffffffffffffffffffffffffffffffffffff1681525050506200010e565b600080fd5b600073ffffffffffffffffffffffffffffffffffffffff82169050919050565b6000620000a48262000077565b9050919050565b620000b68162000097565b8114620000c257600080fd5b50565b600081519050620000d681620000ab565b92915050565b600060208284031215620000f557620000f462000072565b5b60006200010584828501620000c5565b91505092915050565b6080516112466200012a60003960006104e701526112466000f3fe608060405234801561001057600080fd5b50600436106100885760003560e01c8063b3f6b99a1161005b578063b3f6b99a1461012d578063c4f8f27b14610149578063e6dee7ed14610179578063fc2a88c31461019557610088565b80633b5cd3a81461008d57806375ce7fff146100ab57806381d12c58146100db578063affed0e01461010f575b600080fd5b6100956101b3565b6040516100a291906107e6565b60405180910390f35b6100c560048036038101906100c0919061084b565b6101b9565b6040516100d29190610893565b60405180910390f35b6100f560048036038101906100f0919061084b565b6101ed565b6040516101069594939291906108bd565b60405180910390f35b610117610223565b6040516101249190610910565b60405180910390f35b61014760048036038101906101429190610990565b610229565b005b610163600480360381019061015e919061084b565b610430565b60405161017091906107e6565b60405180910390f35b610193600480360381019061018e9190610b31565b610448565b005b61019d6104c9565b6040516101aa9190610b9d565b60405180910390f35b60025481565b600081815481106101c957600080fd5b9060005260206000209060209182820401919006915054906101000a900460ff1681565b60046020528060005260406000206000915090508060000154908060010154908060020154908060030154908060040154905085565b60055481565b6102316104e3565b73ffffffffffffffffffffffffffffffffffffffff163373ffffffffffffffffffffffffffffffffffffffff161461029e576040517f08c379a000000000000000000000000000000000000000000000000000000000815260040161029590610c15565b60405180910390fd5b600082828101906102af9190610c35565b915050600080828060200190518101906102c99190610d40565b91509150600085856040516102df929190610dcc565b6040518091039020905060006001600085815260200190815260200160002054821490506000848154811061031757610316610de5565b5b90600052602060002090602091828204019190069054906101000a900460ff16610376576040517f08c379a000000000000000000000000000000000000000000000000000000000815260040161036d90610e60565b60405180910390fd5b801561040f57873046866040516020016103939493929190610ec1565b6040516020818303038152906040528051906020012060001c97506103b988858561050b565b60008085815481106103ce576103cd610de5565b5b90600052602060002090602091828204019190066101000a81548160ff02191690831515021790555060016000858152602001908152602001600020600090555b60016000858152602001908152602001600020600090555050505050505050565b60016020528060005260406000206000915090505481565b61045181610636565b600360006101000a81548167ffffffffffffffff021916908367ffffffffffffffff1602179055507f21375f3d45f34ba59df13f786f613073e082f6c83c0eb2ef6eb83c89c22b8ec8600360009054906101000a900467ffffffffffffffff166040516104be9190610b9d565b60405180910390a150565b600360009054906101000a900467ffffffffffffffff1681565b60007f0000000000000000000000000000000000000000000000000000000000000000905090565b81600360009054906101000a900467ffffffffffffffff1667ffffffffffffffff161461056d576040517f08c379a000000000000000000000000000000000000000000000000000000000815260040161056490610f78565b60405180910390fd5b6000600460008467ffffffffffffffff16815260200190815260200160002090504281600001819055504381600101819055504281600201819055504381600301819055508381600401819055508360001b60028190555082600360006101000a81548167ffffffffffffffff021916908367ffffffffffffffff1602179055508267ffffffffffffffff167f2e15cbd9321328285463961320a9cdba3de05a17e577e72e4c34cbeca629b189826040516106289190611079565b60405180910390a250505050565b60008080549050905060006001816001815401808255809150500390600052602060002090602091828204019190069054906101000a90505060016000828154811061068557610684610de5565b5b90600052602060002090602091828204019190066101000a81548160ff021916908315150217905550600081836040516020016106c39291906110e9565b604051602081830303815290604052905060006106de61076c565b9050600081836040516020016106f59291906110e9565b60405160208183030381529060405290506000818051906020012090508060016000878152602001908152602001600020819055507fd91fc3685b930310b008ec37d2334870cab88a023ed8cc628a2e2ccd4e55d202838560405161075b9291906110e9565b60405180910390a150505050919050565b6000806364e621274261077f9190611148565b90506000600160038361079291906111ab565b61079c91906111dc565b9050600146146107b8576001816107b391906111dc565b6107c6565b6004816107c591906111dc565b5b9250505090565b6000819050919050565b6107e0816107cd565b82525050565b60006020820190506107fb60008301846107d7565b92915050565b6000604051905090565b600080fd5b600080fd5b6000819050919050565b61082881610815565b811461083357600080fd5b50565b6000813590506108458161081f565b92915050565b6000602082840312156108615761086061080b565b5b600061086f84828501610836565b91505092915050565b60008115159050919050565b61088d81610878565b82525050565b60006020820190506108a86000830184610884565b92915050565b6108b781610815565b82525050565b600060a0820190506108d260008301886108ae565b6108df60208301876108ae565b6108ec60408301866108ae565b6108f960608301856108ae565b61090660808301846108ae565b9695505050505050565b600060208201905061092560008301846108ae565b92915050565b600080fd5b600080fd5b600080fd5b60008083601f8401126109505761094f61092b565b5b8235905067ffffffffffffffff81111561096d5761096c610930565b5b60208301915083600182028301111561098957610988610935565b5b9250929050565b6000806000604084860312156109a9576109a861080b565b5b60006109b786828701610836565b935050602084013567ffffffffffffffff8111156109d8576109d7610810565b5b6109e48682870161093a565b92509250509250925092565b600080fd5b6000601f19601f8301169050919050565b7f4e487b7100000000000000000000000000000000000000000000000000000000600052604160045260246000fd5b610a3e826109f5565b810181811067ffffffffffffffff82111715610a5d57610a5c610a06565b5b80604052505050565b6000610a70610801565b9050610a7c8282610a35565b919050565b600067ffffffffffffffff821115610a9c57610a9b610a06565b5b610aa5826109f5565b9050602081019050919050565b82818337600083830152505050565b6000610ad4610acf84610a81565b610a66565b905082815260208101848484011115610af057610aef6109f0565b5b610afb848285610ab2565b509392505050565b600082601f830112610b1857610b1761092b565b5b8135610b28848260208601610ac1565b91505092915050565b600060208284031215610b4757610b4661080b565b5b600082013567ffffffffffffffff811115610b6557610b64610810565b5b610b7184828501610b03565b91505092915050565b600067ffffffffffffffff82169050919050565b610b9781610b7a565b82525050565b6000602082019050610bb26000830184610b8e565b92915050565b600082825260208201905092915050565b7f6f6e6c79206f70657261746f7200000000000000000000000000000000000000600082015250565b6000610bff600d83610bb8565b9150610c0a82610bc9565b602082019050919050565b60006020820190508181036000830152610c2e81610bf2565b9050919050565b60008060408385031215610c4c57610c4b61080b565b5b6000610c5a85828601610836565b925050602083013567ffffffffffffffff811115610c7b57610c7a610810565b5b610c8785828601610b03565b9150509250929050565b600081519050610ca08161081f565b92915050565b60005b83811015610cc4578082015181840152602081019050610ca9565b60008484015250505050565b6000610ce3610cde84610a81565b610a66565b905082815260208101848484011115610cff57610cfe6109f0565b5b610d0a848285610ca6565b509392505050565b600082601f830112610d2757610d2661092b565b5b8151610d37848260208601610cd0565b91505092915050565b60008060408385031215610d5757610d5661080b565b5b6000610d6585828601610c91565b925050602083015167ffffffffffffffff811115610d8657610d85610810565b5b610d9285828601610d12565b9150509250929050565b600081905092915050565b6000610db38385610d9c565b9350610dc0838584610ab2565b82840190509392505050565b6000610dd9828486610da7565b91508190509392505050565b7f4e487b7100000000000000000000000000000000000000000000000000000000600052603260045260246000fd5b7f726571756573742066756c66696c6c6564206f72206d697373696e6700000000600082015250565b6000610e4a601c83610bb8565b9150610e5582610e14565b602082019050919050565b60006020820190508181036000830152610e7981610e3d565b9050919050565b600073ffffffffffffffffffffffffffffffffffffffff82169050919050565b6000610eab82610e80565b9050919050565b610ebb81610ea0565b82525050565b6000608082019050610ed660008301876108ae565b610ee36020830186610eb2565b610ef060408301856108ae565b610efd60608301846108ae565b95945050505050565b7f5265717565737420494420646f6573206e6f74206d6174636820746865206c6160008201527f737420726571756573742e000000000000000000000000000000000000000000602082015250565b6000610f62602b83610bb8565b9150610f6d82610f06565b604082019050919050565b60006020820190508181036000830152610f9181610f55565b9050919050565b60008160001c9050919050565b6000819050919050565b6000610fc2610fbd83610f98565b610fa5565b9050919050565b610fd281610815565b82525050565b60a082016000808301549050610fed81610faf565b610ffa6000860182610fc9565b506001830154905061100b81610faf565b6110186020860182610fc9565b506002830154905061102981610faf565b6110366040860182610fc9565b506003830154905061104781610faf565b6110546060860182610fc9565b506004830154905061106581610faf565b6110726080860182610fc9565b5050505050565b600060a08201905061108e6000830184610fd8565b92915050565b600081519050919050565b600082825260208201905092915050565b60006110bb82611094565b6110c5818561109f565b93506110d5818560208601610ca6565b6110de816109f5565b840191505092915050565b60006040820190506110fe60008301856108ae565b818103602083015261111081846110b0565b90509392505050565b7f4e487b7100000000000000000000000000000000000000000000000000000000600052601160045260246000fd5b600061115382610815565b915061115e83610815565b925082820390508181111561117657611175611119565b5b92915050565b7f4e487b7100000000000000000000000000000000000000000000000000000000600052601260045260246000fd5b60006111b682610815565b91506111c183610815565b9250826111d1576111d061117c565b5b828204905092915050565b60006111e782610815565b91506111f283610815565b925082820190508082111561120a57611209611119565b5b9291505056fea264697066735822122041651f5d7d01b359eed84456203fc22fc4c129bf35c0df924b536ca3bdb65b3164736f6c63430008130033","opcodes":"PUSH1 0xA0 PUSH1 0x40 MSTORE CALLVALUE DUP1 ISZERO PUSH3 0x11 JUMPI PUSH1 0x0 DUP1 REVERT JUMPDEST POP PUSH1 0x40 MLOAD PUSH3 0x1370 CODESIZE SUB DUP1 PUSH3 0x1370 DUP4 CODECOPY DUP2 DUP2 ADD PUSH1 0x40 MSTORE DUP2 ADD SWAP1 PUSH3 0x37 SWAP2 SWAP1 PUSH3 0xDC JUMP JUMPDEST DUP1 PUSH20 0xFFFFFFFFFFFFFFFFFFFFFFFFFFFFFFFFFFFFFFFF AND PUSH1 0x80 DUP2 PUSH20 0xFFFFFFFFFFFFFFFFFFFFFFFFFFFFFFFFFFFFFFFF AND DUP2 MSTORE POP POP POP PUSH3 0x10E JUMP JUMPDEST PUSH1 0x0 DUP1 REVERT JUMPDEST PUSH1 0x0 PUSH20 0xFFFFFFFFFFFFFFFFFFFFFFFFFFFFFFFFFFFFFFFF DUP3 AND SWAP1 POP SWAP2 SWAP1 POP JUMP JUMPDEST PUSH1 0x0 PUSH3 0xA4 DUP3 PUSH3 0x77 JUMP JUMPDEST SWAP1 POP SWAP2 SWAP1 POP JUMP JUMPDEST PUSH3 0xB6 DUP2 PUSH3 0x97 JUMP JUMPDEST DUP2 EQ PUSH3 0xC2 JUMPI PUSH1 0x0 DUP1 REVERT JUMPDEST POP JUMP JUMPDEST PUSH1 0x0 DUP2 MLOAD SWAP1 POP PUSH3 0xD6 DUP2 PUSH3 0xAB JUMP JUMPDEST SWAP3 SWAP2 POP POP JUMP JUMPDEST PUSH1 0x0 PUSH1 0x20 DUP3 DUP5 SUB SLT ISZERO PUSH3 0xF5 JUMPI PUSH3 0xF4 PUSH3 0x72 JUMP JUMPDEST JUMPDEST PUSH1 0x0 PUSH3 0x105 DUP5 DUP3 DUP6 ADD PUSH3 0xC5 JUMP JUMPDEST SWAP2 POP POP SWAP3 SWAP2 POP POP JUMP JUMPDEST PUSH1 0x80 MLOAD PUSH2 0x1246 PUSH3 0x12A PUSH1 0x0 CODECOPY PUSH1 0x0 PUSH2 0x4E7 ADD MSTORE PUSH2 0x1246 PUSH1 0x0 RETURN INVALID PUSH1 0x80 PUSH1 0x40 MSTORE CALLVALUE DUP1 ISZERO PUSH2 0x10 JUMPI PUSH1 0x0 DUP1 REVERT JUMPDEST POP PUSH1 0x4 CALLDATASIZE LT PUSH2 0x88 JUMPI PUSH1 0x0 CALLDATALOAD PUSH1 0xE0 SHR DUP1 PUSH4 0xB3F6B99A GT PUSH2 0x5B JUMPI DUP1 PUSH4 0xB3F6B99A EQ PUSH2 0x12D JUMPI DUP1 PUSH4 0xC4F8F27B EQ PUSH2 0x149 JUMPI DUP1 PUSH4 0xE6DEE7ED EQ PUSH2 0x179 JUMPI DUP1 PUSH4 0xFC2A88C3 EQ PUSH2 0x195 JUMPI PUSH2 0x88 JUMP JUMPDEST DUP1 PUSH4 0x3B5CD3A8 EQ PUSH2 0x8D JUMPI DUP1 PUSH4 0x75CE7FFF EQ PUSH2 0xAB JUMPI DUP1 PUSH4 0x81D12C58 EQ PUSH2 0xDB JUMPI DUP1 PUSH4 0xAFFED0E0 EQ PUSH2 0x10F JUMPI JUMPDEST PUSH1 0x0 DUP1 REVERT JUMPDEST PUSH2 0x95 PUSH2 0x1B3 JUMP JUMPDEST PUSH1 0x40 MLOAD PUSH2 0xA2 SWAP2 SWAP1 PUSH2 0x7E6 JUMP JUMPDEST PUSH1 0x40 MLOAD DUP1 SWAP2 SUB SWAP1 RETURN JUMPDEST PUSH2 0xC5 PUSH1 0x4 DUP1 CALLDATASIZE SUB DUP2 ADD SWAP1 PUSH2 0xC0 SWAP2 SWAP1 PUSH2 0x84B JUMP JUMPDEST PUSH2 0x1B9 JUMP JUMPDEST PUSH1 0x40 MLOAD PUSH2 0xD2 SWAP2 SWAP1 PUSH2 0x893 JUMP JUMPDEST PUSH1 0x40 MLOAD DUP1 SWAP2 SUB SWAP1 RETURN JUMPDEST PUSH2 0xF5 PUSH1 0x4 DUP1 CALLDATASIZE SUB DUP2 ADD SWAP1 PUSH2 0xF0 SWAP2 SWAP1 PUSH2 0x84B JUMP JUMPDEST PUSH2 0x1ED JUMP JUMPDEST PUSH1 0x40 MLOAD PUSH2 0x106 SWAP6 SWAP5 SWAP4 SWAP3 SWAP2 SWAP1 PUSH2 0x8BD JUMP JUMPDEST PUSH1 0x40 MLOAD DUP1 SWAP2 SUB SWAP1 RETURN JUMPDEST PUSH2 0x117 PUSH2 0x223 JUMP JUMPDEST PUSH1 0x40 MLOAD PUSH2 0x124 SWAP2 SWAP1 PUSH2 0x910 JUMP JUMPDEST PUSH1 0x40 MLOAD DUP1 SWAP2 SUB SWAP1 RETURN JUMPDEST PUSH2 0x147 PUSH1 0x4 DUP1 CALLDATASIZE SUB DUP2 ADD SWAP1 PUSH2 0x142 SWAP2 SWAP1 PUSH2 0x990 JUMP JUMPDEST PUSH2 0x229 JUMP JUMPDEST STOP JUMPDEST PUSH2 0x163 PUSH1 0x4 DUP1 CALLDATASIZE SUB DUP2 ADD SWAP1 PUSH2 0x15E SWAP2 SWAP1 PUSH2 0x84B JUMP JUMPDEST PUSH2 0x430 JUMP JUMPDEST PUSH1 0x40 MLOAD PUSH2 0x170 SWAP2 SWAP1 PUSH2 0x7E6 JUMP JUMPDEST PUSH1 0x40 MLOAD DUP1 SWAP2 SUB SWAP1 RETURN JUMPDEST PUSH2 0x193 PUSH1 0x4 DUP1 CALLDATASIZE SUB DUP2 ADD SWAP1 PUSH2 0x18E SWAP2 SWAP1 PUSH2 0xB31 JUMP JUMPDEST PUSH2 0x448 JUMP JUMPDEST STOP JUMPDEST PUSH2 0x19D PUSH2 0x4C9 JUMP JUMPDEST PUSH1 0x40 MLOAD PUSH2 0x1AA SWAP2 SWAP1 PUSH2 0xB9D JUMP JUMPDEST PUSH1 0x40 MLOAD DUP1 SWAP2 SUB SWAP1 RETURN JUMPDEST PUSH1 0x2 SLOAD DUP2 JUMP JUMPDEST PUSH1 0x0 DUP2 DUP2 SLOAD DUP2 LT PUSH2 0x1C9 JUMPI PUSH1 0x0 DUP1 REVERT JUMPDEST SWAP1 PUSH1 0x0 MSTORE PUSH1 0x20 PUSH1 0x0 KECCAK256 SWAP1 PUSH1 0x20 SWAP2 DUP3 DUP3 DIV ADD SWAP2 SWAP1 MOD SWAP2 POP SLOAD SWAP1 PUSH2 0x100 EXP SWAP1 DIV PUSH1 0xFF AND DUP2 JUMP JUMPDEST PUSH1 0x4 PUSH1 0x20 MSTORE DUP1 PUSH1 0x0 MSTORE PUSH1 0x40 PUSH1 0x0 KECCAK256 PUSH1 0x0 SWAP2 POP SWAP1 POP DUP1 PUSH1 0x0 ADD SLOAD SWAP1 DUP1 PUSH1 0x1 ADD SLOAD SWAP1 DUP1 PUSH1 0x2 ADD SLOAD SWAP1 DUP1 PUSH1 0x3 ADD SLOAD SWAP1 DUP1 PUSH1 0x4 ADD SLOAD SWAP1 POP DUP6 JUMP JUMPDEST PUSH1 0x5 SLOAD DUP2 JUMP JUMPDEST PUSH2 0x231 PUSH2 0x4E3 JUMP JUMPDEST PUSH20 0xFFFFFFFFFFFFFFFFFFFFFFFFFFFFFFFFFFFFFFFF AND CALLER PUSH20 0xFFFFFFFFFFFFFFFFFFFFFFFFFFFFFFFFFFFFFFFF AND EQ PUSH2 0x29E JUMPI PUSH1 0x40 MLOAD PUSH32 0x8C379A000000000000000000000000000000000000000000000000000000000 DUP2 MSTORE PUSH1 0x4 ADD PUSH2 0x295 SWAP1 PUSH2 0xC15 JUMP JUMPDEST PUSH1 0x40 MLOAD DUP1 SWAP2 SUB SWAP1 REVERT JUMPDEST PUSH1 0x0 DUP3 DUP3 DUP2 ADD SWAP1 PUSH2 0x2AF SWAP2 SWAP1 PUSH2 0xC35 JUMP JUMPDEST SWAP2 POP POP PUSH1 0x0 DUP1 DUP3 DUP1 PUSH1 0x20 ADD SWAP1 MLOAD DUP2 ADD SWAP1 PUSH2 0x2C9 SWAP2 SWAP1 PUSH2 0xD40 JUMP JUMPDEST SWAP2 POP SWAP2 POP PUSH1 0x0 DUP6 DUP6 PUSH1 0x40 MLOAD PUSH2 0x2DF SWAP3 SWAP2 SWAP1 PUSH2 0xDCC JUMP JUMPDEST PUSH1 0x40 MLOAD DUP1 SWAP2 SUB SWAP1 KECCAK256 SWAP1 POP PUSH1 0x0 PUSH1 0x1 PUSH1 0x0 DUP6 DUP2 MSTORE PUSH1 0x20 ADD SWAP1 DUP2 MSTORE PUSH1 0x20 ADD PUSH1 0x0 KECCAK256 SLOAD DUP3 EQ SWAP1 POP PUSH1 0x0 DUP5 DUP2 SLOAD DUP2 LT PUSH2 0x317 JUMPI PUSH2 0x316 PUSH2 0xDE5 JUMP JUMPDEST JUMPDEST SWAP1 PUSH1 0x0 MSTORE PUSH1 0x20 PUSH1 0x0 KECCAK256 SWAP1 PUSH1 0x20 SWAP2 DUP3 DUP3 DIV ADD SWAP2 SWAP1 MOD SWAP1 SLOAD SWAP1 PUSH2 0x100 EXP SWAP1 DIV PUSH1 0xFF AND PUSH2 0x376 JUMPI PUSH1 0x40 MLOAD PUSH32 0x8C379A000000000000000000000000000000000000000000000000000000000 DUP2 MSTORE PUSH1 0x4 ADD PUSH2 0x36D SWAP1 PUSH2 0xE60 JUMP JUMPDEST PUSH1 0x40 MLOAD DUP1 SWAP2 SUB SWAP1 REVERT JUMPDEST DUP1 ISZERO PUSH2 0x40F JUMPI DUP8 ADDRESS CHAINID DUP7 PUSH1 0x40 MLOAD PUSH1 0x20 ADD PUSH2 0x393 SWAP5 SWAP4 SWAP3 SWAP2 SWAP1 PUSH2 0xEC1 JUMP JUMPDEST PUSH1 0x40 MLOAD PUSH1 0x20 DUP2 DUP4 SUB SUB DUP2 MSTORE SWAP1 PUSH1 0x40 MSTORE DUP1 MLOAD SWAP1 PUSH1 0x20 ADD KECCAK256 PUSH1 0x0 SHR SWAP8 POP PUSH2 0x3B9 DUP9 DUP6 DUP6 PUSH2 0x50B JUMP JUMPDEST PUSH1 0x0 DUP1 DUP6 DUP2 SLOAD DUP2 LT PUSH2 0x3CE JUMPI PUSH2 0x3CD PUSH2 0xDE5 JUMP JUMPDEST JUMPDEST SWAP1 PUSH1 0x0 MSTORE PUSH1 0x20 PUSH1 0x0 KECCAK256 SWAP1 PUSH1 0x20 SWAP2 DUP3 DUP3 DIV ADD SWAP2 SWAP1 MOD PUSH2 0x100 EXP DUP2 SLOAD DUP2 PUSH1 0xFF MUL NOT AND SWAP1 DUP4 ISZERO ISZERO MUL OR SWAP1 SSTORE POP PUSH1 0x1 PUSH1 0x0 DUP6 DUP2 MSTORE PUSH1 0x20 ADD SWAP1 DUP2 MSTORE PUSH1 0x20 ADD PUSH1 0x0 KECCAK256 PUSH1 0x0 SWAP1 SSTORE JUMPDEST PUSH1 0x1 PUSH1 0x0 DUP6 DUP2 MSTORE PUSH1 0x20 ADD SWAP1 DUP2 MSTORE PUSH1 0x20 ADD PUSH1 0x0 KECCAK256 PUSH1 0x0 SWAP1 SSTORE POP POP POP POP POP POP POP POP JUMP JUMPDEST PUSH1 0x1 PUSH1 0x20 MSTORE DUP1 PUSH1 0x0 MSTORE PUSH1 0x40 PUSH1 0x0 KECCAK256 PUSH1 0x0 SWAP2 POP SWAP1 POP SLOAD DUP2 JUMP JUMPDEST PUSH2 0x451 DUP2 PUSH2 0x636 JUMP JUMPDEST PUSH1 0x3 PUSH1 0x0 PUSH2 0x100 EXP DUP2 SLOAD DUP2 PUSH8 0xFFFFFFFFFFFFFFFF MUL NOT AND SWAP1 DUP4 PUSH8 0xFFFFFFFFFFFFFFFF AND MUL OR SWAP1 SSTORE POP PUSH32 0x21375F3D45F34BA59DF13F786F613073E082F6C83C0EB2EF6EB83C89C22B8EC8 PUSH1 0x3 PUSH1 0x0 SWAP1 SLOAD SWAP1 PUSH2 0x100 EXP SWAP1 DIV PUSH8 0xFFFFFFFFFFFFFFFF AND PUSH1 0x40 MLOAD PUSH2 0x4BE SWAP2 SWAP1 PUSH2 0xB9D JUMP JUMPDEST PUSH1 0x40 MLOAD DUP1 SWAP2 SUB SWAP1 LOG1 POP JUMP JUMPDEST PUSH1 0x3 PUSH1 0x0 SWAP1 SLOAD SWAP1 PUSH2 0x100 EXP SWAP1 DIV PUSH8 0xFFFFFFFFFFFFFFFF AND DUP2 JUMP JUMPDEST PUSH1 0x0 PUSH32 0x0 SWAP1 POP SWAP1 JUMP JUMPDEST DUP2 PUSH1 0x3 PUSH1 0x0 SWAP1 SLOAD SWAP1 PUSH2 0x100 EXP SWAP1 DIV PUSH8 0xFFFFFFFFFFFFFFFF AND PUSH8 0xFFFFFFFFFFFFFFFF AND EQ PUSH2 0x56D JUMPI PUSH1 0x40 MLOAD PUSH32 0x8C379A000000000000000000000000000000000000000000000000000000000 DUP2 MSTORE PUSH1 0x4 ADD PUSH2 0x564 SWAP1 PUSH2 0xF78 JUMP JUMPDEST PUSH1 0x40 MLOAD DUP1 SWAP2 SUB SWAP1 REVERT JUMPDEST PUSH1 0x0 PUSH1 0x4 PUSH1 0x0 DUP5 PUSH8 0xFFFFFFFFFFFFFFFF AND DUP2 MSTORE PUSH1 0x20 ADD SWAP1 DUP2 MSTORE PUSH1 0x20 ADD PUSH1 0x0 KECCAK256 SWAP1 POP TIMESTAMP DUP2 PUSH1 0x0 ADD DUP2 SWAP1 SSTORE POP NUMBER DUP2 PUSH1 0x1 ADD DUP2 SWAP1 SSTORE POP TIMESTAMP DUP2 PUSH1 0x2 ADD DUP2 SWAP1 SSTORE POP NUMBER DUP2 PUSH1 0x3 ADD DUP2 SWAP1 SSTORE POP DUP4 DUP2 PUSH1 0x4 ADD DUP2 SWAP1 SSTORE POP DUP4 PUSH1 0x0 SHL PUSH1 0x2 DUP2 SWAP1 SSTORE POP DUP3 PUSH1 0x3 PUSH1 0x0 PUSH2 0x100 EXP DUP2 SLOAD DUP2 PUSH8 0xFFFFFFFFFFFFFFFF MUL NOT AND SWAP1 DUP4 PUSH8 0xFFFFFFFFFFFFFFFF AND MUL OR SWAP1 SSTORE POP DUP3 PUSH8 0xFFFFFFFFFFFFFFFF AND PUSH32 0x2E15CBD9321328285463961320A9CDBA3DE05A17E577E72E4C34CBECA629B189 DUP3 PUSH1 0x40 MLOAD PUSH2 0x628 SWAP2 SWAP1 PUSH2 0x1079 JUMP JUMPDEST PUSH1 0x40 MLOAD DUP1 SWAP2 SUB SWAP1 LOG2 POP POP POP POP JUMP JUMPDEST PUSH1 0x0 DUP1 DUP1 SLOAD SWAP1 POP SWAP1 POP PUSH1 0x0 PUSH1 0x1 DUP2 PUSH1 0x1 DUP2 SLOAD ADD DUP1 DUP3 SSTORE DUP1 SWAP2 POP POP SUB SWAP1 PUSH1 0x0 MSTORE PUSH1 0x20 PUSH1 0x0 KECCAK256 SWAP1 PUSH1 0x20 SWAP2 DUP3 DUP3 DIV ADD SWAP2 SWAP1 MOD SWAP1 SLOAD SWAP1 PUSH2 0x100 EXP SWAP1 POP POP PUSH1 0x1 PUSH1 0x0 DUP3 DUP2 SLOAD DUP2 LT PUSH2 0x685 JUMPI PUSH2 0x684 PUSH2 0xDE5 JUMP JUMPDEST JUMPDEST SWAP1 PUSH1 0x0 MSTORE PUSH1 0x20 PUSH1 0x0 KECCAK256 SWAP1 PUSH1 0x20 SWAP2 DUP3 DUP3 DIV ADD SWAP2 SWAP1 MOD PUSH2 0x100 EXP DUP2 SLOAD DUP2 PUSH1 0xFF MUL NOT AND SWAP1 DUP4 ISZERO ISZERO MUL OR SWAP1 SSTORE POP PUSH1 0x0 DUP2 DUP4 PUSH1 0x40 MLOAD PUSH1 0x20 ADD PUSH2 0x6C3 SWAP3 SWAP2 SWAP1 PUSH2 0x10E9 JUMP JUMPDEST PUSH1 0x40 MLOAD PUSH1 0x20 DUP2 DUP4 SUB SUB DUP2 MSTORE SWAP1 PUSH1 0x40 MSTORE SWAP1 POP PUSH1 0x0 PUSH2 0x6DE PUSH2 0x76C JUMP JUMPDEST SWAP1 POP PUSH1 0x0 DUP2 DUP4 PUSH1 0x40 MLOAD PUSH1 0x20 ADD PUSH2 0x6F5 SWAP3 SWAP2 SWAP1 PUSH2 0x10E9 JUMP JUMPDEST PUSH1 0x40 MLOAD PUSH1 0x20 DUP2 DUP4 SUB SUB DUP2 MSTORE SWAP1 PUSH1 0x40 MSTORE SWAP1 POP PUSH1 0x0 DUP2 DUP1 MLOAD SWAP1 PUSH1 0x20 ADD KECCAK256 SWAP1 POP DUP1 PUSH1 0x1 PUSH1 0x0 DUP8 DUP2 MSTORE PUSH1 0x20 ADD SWAP1 DUP2 MSTORE PUSH1 0x20 ADD PUSH1 0x0 KECCAK256 DUP2 SWAP1 SSTORE POP PUSH32 0xD91FC3685B930310B008EC37D2334870CAB88A023ED8CC628A2E2CCD4E55D202 DUP4 DUP6 PUSH1 0x40 MLOAD PUSH2 0x75B SWAP3 SWAP2 SWAP1 PUSH2 0x10E9 JUMP JUMPDEST PUSH1 0x40 MLOAD DUP1 SWAP2 SUB SWAP1 LOG1 POP POP POP POP SWAP2 SWAP1 POP JUMP JUMPDEST PUSH1 0x0 DUP1 PUSH4 0x64E62127 TIMESTAMP PUSH2 0x77F SWAP2 SWAP1 PUSH2 0x1148 JUMP JUMPDEST SWAP1 POP PUSH1 0x0 PUSH1 0x1 PUSH1 0x3 DUP4 PUSH2 0x792 SWAP2 SWAP1 PUSH2 0x11AB JUMP JUMPDEST PUSH2 0x79C SWAP2 SWAP1 PUSH2 0x11DC JUMP JUMPDEST SWAP1 POP PUSH1 0x1 CHAINID EQ PUSH2 0x7B8 JUMPI PUSH1 0x1 DUP2 PUSH2 0x7B3 SWAP2 SWAP1 PUSH2 0x11DC JUMP JUMPDEST PUSH2 0x7C6 JUMP JUMPDEST PUSH1 0x4 DUP2 PUSH2 0x7C5 SWAP2 SWAP1 PUSH2 0x11DC JUMP JUMPDEST JUMPDEST SWAP3 POP POP POP SWAP1 JUMP JUMPDEST PUSH1 0x0 DUP2 SWAP1 POP SWAP2 SWAP1 POP JUMP JUMPDEST PUSH2 0x7E0 DUP2 PUSH2 0x7CD JUMP JUMPDEST DUP3 MSTORE POP POP JUMP JUMPDEST PUSH1 0x0 PUSH1 0x20 DUP3 ADD SWAP1 POP PUSH2 0x7FB PUSH1 0x0 DUP4 ADD DUP5 PUSH2 0x7D7 JUMP JUMPDEST SWAP3 SWAP2 POP POP JUMP JUMPDEST PUSH1 0x0 PUSH1 0x40 MLOAD SWAP1 POP SWAP1 JUMP JUMPDEST PUSH1 0x0 DUP1 REVERT JUMPDEST PUSH1 0x0 DUP1 REVERT JUMPDEST PUSH1 0x0 DUP2 SWAP1 POP SWAP2 SWAP1 POP JUMP JUMPDEST PUSH2 0x828 DUP2 PUSH2 0x815 JUMP JUMPDEST DUP2 EQ PUSH2 0x833 JUMPI PUSH1 0x0 DUP1 REVERT JUMPDEST POP JUMP JUMPDEST PUSH1 0x0 DUP2 CALLDATALOAD SWAP1 POP PUSH2 0x845 DUP2 PUSH2 0x81F JUMP JUMPDEST SWAP3 SWAP2 POP POP JUMP JUMPDEST PUSH1 0x0 PUSH1 0x20 DUP3 DUP5 SUB SLT ISZERO PUSH2 0x861 JUMPI PUSH2 0x860 PUSH2 0x80B JUMP JUMPDEST JUMPDEST PUSH1 0x0 PUSH2 0x86F DUP5 DUP3 DUP6 ADD PUSH2 0x836 JUMP JUMPDEST SWAP2 POP POP SWAP3 SWAP2 POP POP JUMP JUMPDEST PUSH1 0x0 DUP2 ISZERO ISZERO SWAP1 POP SWAP2 SWAP1 POP JUMP JUMPDEST PUSH2 0x88D DUP2 PUSH2 0x878 JUMP JUMPDEST DUP3 MSTORE POP POP JUMP JUMPDEST PUSH1 0x0 PUSH1 0x20 DUP3 ADD SWAP1 POP PUSH2 0x8A8 PUSH1 0x0 DUP4 ADD DUP5 PUSH2 0x884 JUMP JUMPDEST SWAP3 SWAP2 POP POP JUMP JUMPDEST PUSH2 0x8B7 DUP2 PUSH2 0x815 JUMP JUMPDEST DUP3 MSTORE POP POP JUMP JUMPDEST PUSH1 0x0 PUSH1 0xA0 DUP3 ADD SWAP1 POP PUSH2 0x8D2 PUSH1 0x0 DUP4 ADD DUP9 PUSH2 0x8AE JUMP JUMPDEST PUSH2 0x8DF PUSH1 0x20 DUP4 ADD DUP8 PUSH2 0x8AE JUMP JUMPDEST PUSH2 0x8EC PUSH1 0x40 DUP4 ADD DUP7 PUSH2 0x8AE JUMP JUMPDEST PUSH2 0x8F9 PUSH1 0x60 DUP4 ADD DUP6 PUSH2 0x8AE JUMP JUMPDEST PUSH2 0x906 PUSH1 0x80 DUP4 ADD DUP5 PUSH2 0x8AE JUMP JUMPDEST SWAP7 SWAP6 POP POP POP POP POP POP JUMP JUMPDEST PUSH1 0x0 PUSH1 0x20 DUP3 ADD SWAP1 POP PUSH2 0x925 PUSH1 0x0 DUP4 ADD DUP5 PUSH2 0x8AE JUMP JUMPDEST SWAP3 SWAP2 POP POP JUMP JUMPDEST PUSH1 0x0 DUP1 REVERT JUMPDEST PUSH1 0x0 DUP1 REVERT JUMPDEST PUSH1 0x0 DUP1 REVERT JUMPDEST PUSH1 0x0 DUP1 DUP4 PUSH1 0x1F DUP5 ADD SLT PUSH2 0x950 JUMPI PUSH2 0x94F PUSH2 0x92B JUMP JUMPDEST JUMPDEST DUP3 CALLDATALOAD SWAP1 POP PUSH8 0xFFFFFFFFFFFFFFFF DUP2 GT ISZERO PUSH2 0x96D JUMPI PUSH2 0x96C PUSH2 0x930 JUMP JUMPDEST JUMPDEST PUSH1 0x20 DUP4 ADD SWAP2 POP DUP4 PUSH1 0x1 DUP3 MUL DUP4 ADD GT ISZERO PUSH2 0x989 JUMPI PUSH2 0x988 PUSH2 0x935 JUMP JUMPDEST JUMPDEST SWAP3 POP SWAP3 SWAP1 POP JUMP JUMPDEST PUSH1 0x0 DUP1 PUSH1 0x0 PUSH1 0x40 DUP5 DUP7 SUB SLT ISZERO PUSH2 0x9A9 JUMPI PUSH2 0x9A8 PUSH2 0x80B JUMP JUMPDEST JUMPDEST PUSH1 0x0 PUSH2 0x9B7 DUP7 DUP3 DUP8 ADD PUSH2 0x836 JUMP JUMPDEST SWAP4 POP POP PUSH1 0x20 DUP5 ADD CALLDATALOAD PUSH8 0xFFFFFFFFFFFFFFFF DUP2 GT ISZERO PUSH2 0x9D8 JUMPI PUSH2 0x9D7 PUSH2 0x810 JUMP JUMPDEST JUMPDEST PUSH2 0x9E4 DUP7 DUP3 DUP8 ADD PUSH2 0x93A JUMP JUMPDEST SWAP3 POP SWAP3 POP POP SWAP3 POP SWAP3 POP SWAP3 JUMP JUMPDEST PUSH1 0x0 DUP1 REVERT JUMPDEST PUSH1 0x0 PUSH1 0x1F NOT PUSH1 0x1F DUP4 ADD AND SWAP1 POP SWAP2 SWAP1 POP JUMP JUMPDEST PUSH32 0x4E487B7100000000000000000000000000000000000000000000000000000000 PUSH1 0x0 MSTORE PUSH1 0x41 PUSH1 0x4 MSTORE PUSH1 0x24 PUSH1 0x0 REVERT JUMPDEST PUSH2 0xA3E DUP3 PUSH2 0x9F5 JUMP JUMPDEST DUP2 ADD DUP2 DUP2 LT PUSH8 0xFFFFFFFFFFFFFFFF DUP3 GT OR ISZERO PUSH2 0xA5D JUMPI PUSH2 0xA5C PUSH2 0xA06 JUMP JUMPDEST JUMPDEST DUP1 PUSH1 0x40 MSTORE POP POP POP JUMP JUMPDEST PUSH1 0x0 PUSH2 0xA70 PUSH2 0x801 JUMP JUMPDEST SWAP1 POP PUSH2 0xA7C DUP3 DUP3 PUSH2 0xA35 JUMP JUMPDEST SWAP2 SWAP1 POP JUMP JUMPDEST PUSH1 0x0 PUSH8 0xFFFFFFFFFFFFFFFF DUP3 GT ISZERO PUSH2 0xA9C JUMPI PUSH2 0xA9B PUSH2 0xA06 JUMP JUMPDEST JUMPDEST PUSH2 0xAA5 DUP3 PUSH2 0x9F5 JUMP JUMPDEST SWAP1 POP PUSH1 0x20 DUP2 ADD SWAP1 POP SWAP2 SWAP1 POP JUMP JUMPDEST DUP3 DUP2 DUP4 CALLDATACOPY PUSH1 0x0 DUP4 DUP4 ADD MSTORE POP POP POP JUMP JUMPDEST PUSH1 0x0 PUSH2 0xAD4 PUSH2 0xACF DUP5 PUSH2 0xA81 JUMP JUMPDEST PUSH2 0xA66 JUMP JUMPDEST SWAP1 POP DUP3 DUP2 MSTORE PUSH1 0x20 DUP2 ADD DUP5 DUP5 DUP5 ADD GT ISZERO PUSH2 0xAF0 JUMPI PUSH2 0xAEF PUSH2 0x9F0 JUMP JUMPDEST JUMPDEST PUSH2 0xAFB DUP5 DUP3 DUP6 PUSH2 0xAB2 JUMP JUMPDEST POP SWAP4 SWAP3 POP POP POP JUMP JUMPDEST PUSH1 0x0 DUP3 PUSH1 0x1F DUP4 ADD SLT PUSH2 0xB18 JUMPI PUSH2 0xB17 PUSH2 0x92B JUMP JUMPDEST JUMPDEST DUP2 CALLDATALOAD PUSH2 0xB28 DUP5 DUP3 PUSH1 0x20 DUP7 ADD PUSH2 0xAC1 JUMP JUMPDEST SWAP2 POP POP SWAP3 SWAP2 POP POP JUMP JUMPDEST PUSH1 0x0 PUSH1 0x20 DUP3 DUP5 SUB SLT ISZERO PUSH2 0xB47 JUMPI PUSH2 0xB46 PUSH2 0x80B JUMP JUMPDEST JUMPDEST PUSH1 0x0 DUP3 ADD CALLDATALOAD PUSH8 0xFFFFFFFFFFFFFFFF DUP2 GT ISZERO PUSH2 0xB65 JUMPI PUSH2 0xB64 PUSH2 0x810 JUMP JUMPDEST JUMPDEST PUSH2 0xB71 DUP5 DUP3 DUP6 ADD PUSH2 0xB03 JUMP JUMPDEST SWAP2 POP POP SWAP3 SWAP2 POP POP JUMP JUMPDEST PUSH1 0x0 PUSH8 0xFFFFFFFFFFFFFFFF DUP3 AND SWAP1 POP SWAP2 SWAP1 POP JUMP JUMPDEST PUSH2 0xB97 DUP2 PUSH2 0xB7A JUMP JUMPDEST DUP3 MSTORE POP POP JUMP JUMPDEST PUSH1 0x0 PUSH1 0x20 DUP3 ADD SWAP1 POP PUSH2 0xBB2 PUSH1 0x0 DUP4 ADD DUP5 PUSH2 0xB8E JUMP JUMPDEST SWAP3 SWAP2 POP POP JUMP JUMPDEST PUSH1 0x0 DUP3 DUP3 MSTORE PUSH1 0x20 DUP3 ADD SWAP1 POP SWAP3 SWAP2 POP POP JUMP JUMPDEST PUSH32 0x6F6E6C79206F70657261746F7200000000000000000000000000000000000000 PUSH1 0x0 DUP3 ADD MSTORE POP JUMP JUMPDEST PUSH1 0x0 PUSH2 0xBFF PUSH1 0xD DUP4 PUSH2 0xBB8 JUMP JUMPDEST SWAP2 POP PUSH2 0xC0A DUP3 PUSH2 0xBC9 JUMP JUMPDEST PUSH1 0x20 DUP3 ADD SWAP1 POP SWAP2 SWAP1 POP JUMP JUMPDEST PUSH1 0x0 PUSH1 0x20 DUP3 ADD SWAP1 POP DUP2 DUP2 SUB PUSH1 0x0 DUP4 ADD MSTORE PUSH2 0xC2E DUP2 PUSH2 0xBF2 JUMP JUMPDEST SWAP1 POP SWAP2 SWAP1 POP JUMP JUMPDEST PUSH1 0x0 DUP1 PUSH1 0x40 DUP4 DUP6 SUB SLT ISZERO PUSH2 0xC4C JUMPI PUSH2 0xC4B PUSH2 0x80B JUMP JUMPDEST JUMPDEST PUSH1 0x0 PUSH2 0xC5A DUP6 DUP3 DUP7 ADD PUSH2 0x836 JUMP JUMPDEST SWAP3 POP POP PUSH1 0x20 DUP4 ADD CALLDATALOAD PUSH8 0xFFFFFFFFFFFFFFFF DUP2 GT ISZERO PUSH2 0xC7B JUMPI PUSH2 0xC7A PUSH2 0x810 JUMP JUMPDEST JUMPDEST PUSH2 0xC87 DUP6 DUP3 DUP7 ADD PUSH2 0xB03 JUMP JUMPDEST SWAP2 POP POP SWAP3 POP SWAP3 SWAP1 POP JUMP JUMPDEST PUSH1 0x0 DUP2 MLOAD SWAP1 POP PUSH2 0xCA0 DUP2 PUSH2 0x81F JUMP JUMPDEST SWAP3 SWAP2 POP POP JUMP JUMPDEST PUSH1 0x0 JUMPDEST DUP4 DUP2 LT ISZERO PUSH2 0xCC4 JUMPI DUP1 DUP3 ADD MLOAD DUP2 DUP5 ADD MSTORE PUSH1 0x20 DUP2 ADD SWAP1 POP PUSH2 0xCA9 JUMP JUMPDEST PUSH1 0x0 DUP5 DUP5 ADD MSTORE POP POP POP POP JUMP JUMPDEST PUSH1 0x0 PUSH2 0xCE3 PUSH2 0xCDE DUP5 PUSH2 0xA81 JUMP JUMPDEST PUSH2 0xA66 JUMP JUMPDEST SWAP1 POP DUP3 DUP2 MSTORE PUSH1 0x20 DUP2 ADD DUP5 DUP5 DUP5 ADD GT ISZERO PUSH2 0xCFF JUMPI PUSH2 0xCFE PUSH2 0x9F0 JUMP JUMPDEST JUMPDEST PUSH2 0xD0A DUP5 DUP3 DUP6 PUSH2 0xCA6 JUMP JUMPDEST POP SWAP4 SWAP3 POP POP POP JUMP JUMPDEST PUSH1 0x0 DUP3 PUSH1 0x1F DUP4 ADD SLT PUSH2 0xD27 JUMPI PUSH2 0xD26 PUSH2 0x92B JUMP JUMPDEST JUMPDEST DUP2 MLOAD PUSH2 0xD37 DUP5 DUP3 PUSH1 0x20 DUP7 ADD PUSH2 0xCD0 JUMP JUMPDEST SWAP2 POP POP SWAP3 SWAP2 POP POP JUMP JUMPDEST PUSH1 0x0 DUP1 PUSH1 0x40 DUP4 DUP6 SUB SLT ISZERO PUSH2 0xD57 JUMPI PUSH2 0xD56 PUSH2 0x80B JUMP JUMPDEST JUMPDEST PUSH1 0x0 PUSH2 0xD65 DUP6 DUP3 DUP7 ADD PUSH2 0xC91 JUMP JUMPDEST SWAP3 POP POP PUSH1 0x20 DUP4 ADD MLOAD PUSH8 0xFFFFFFFFFFFFFFFF DUP2 GT ISZERO PUSH2 0xD86 JUMPI PUSH2 0xD85 PUSH2 0x810 JUMP JUMPDEST JUMPDEST PUSH2 0xD92 DUP6 DUP3 DUP7 ADD PUSH2 0xD12 JUMP JUMPDEST SWAP2 POP POP SWAP3 POP SWAP3 SWAP1 POP JUMP JUMPDEST PUSH1 0x0 DUP2 SWAP1 POP SWAP3 SWAP2 POP POP JUMP JUMPDEST PUSH1 0x0 PUSH2 0xDB3 DUP4 DUP6 PUSH2 0xD9C JUMP JUMPDEST SWAP4 POP PUSH2 0xDC0 DUP4 DUP6 DUP5 PUSH2 0xAB2 JUMP JUMPDEST DUP3 DUP5 ADD SWAP1 POP SWAP4 SWAP3 POP POP POP JUMP JUMPDEST PUSH1 0x0 PUSH2 0xDD9 DUP3 DUP5 DUP7 PUSH2 0xDA7 JUMP JUMPDEST SWAP2 POP DUP2 SWAP1 POP SWAP4 SWAP3 POP POP POP JUMP JUMPDEST PUSH32 0x4E487B7100000000000000000000000000000000000000000000000000000000 PUSH1 0x0 MSTORE PUSH1 0x32 PUSH1 0x4 MSTORE PUSH1 0x24 PUSH1 0x0 REVERT JUMPDEST PUSH32 0x726571756573742066756C66696C6C6564206F72206D697373696E6700000000 PUSH1 0x0 DUP3 ADD MSTORE POP JUMP JUMPDEST PUSH1 0x0 PUSH2 0xE4A PUSH1 0x1C DUP4 PUSH2 0xBB8 JUMP JUMPDEST SWAP2 POP PUSH2 0xE55 DUP3 PUSH2 0xE14 JUMP JUMPDEST PUSH1 0x20 DUP3 ADD SWAP1 POP SWAP2 SWAP1 POP JUMP JUMPDEST PUSH1 0x0 PUSH1 0x20 DUP3 ADD SWAP1 POP DUP2 DUP2 SUB PUSH1 0x0 DUP4 ADD MSTORE PUSH2 0xE79 DUP2 PUSH2 0xE3D JUMP JUMPDEST SWAP1 POP SWAP2 SWAP1 POP JUMP JUMPDEST PUSH1 0x0 PUSH20 0xFFFFFFFFFFFFFFFFFFFFFFFFFFFFFFFFFFFFFFFF DUP3 AND SWAP1 POP SWAP2 SWAP1 POP JUMP JUMPDEST PUSH1 0x0 PUSH2 0xEAB DUP3 PUSH2 0xE80 JUMP JUMPDEST SWAP1 POP SWAP2 SWAP1 POP JUMP JUMPDEST PUSH2 0xEBB DUP2 PUSH2 0xEA0 JUMP JUMPDEST DUP3 MSTORE POP POP JUMP JUMPDEST PUSH1 0x0 PUSH1 0x80 DUP3 ADD SWAP1 POP PUSH2 0xED6 PUSH1 0x0 DUP4 ADD DUP8 PUSH2 0x8AE JUMP JUMPDEST PUSH2 0xEE3 PUSH1 0x20 DUP4 ADD DUP7 PUSH2 0xEB2 JUMP JUMPDEST PUSH2 0xEF0 PUSH1 0x40 DUP4 ADD DUP6 PUSH2 0x8AE JUMP JUMPDEST PUSH2 0xEFD PUSH1 0x60 DUP4 ADD DUP5 PUSH2 0x8AE JUMP JUMPDEST SWAP6 SWAP5 POP POP POP POP POP JUMP JUMPDEST PUSH32 0x5265717565737420494420646F6573206E6F74206D6174636820746865206C61 PUSH1 0x0 DUP3 ADD MSTORE PUSH32 0x737420726571756573742E000000000000000000000000000000000000000000 PUSH1 0x20 DUP3 ADD MSTORE POP JUMP JUMPDEST PUSH1 0x0 PUSH2 0xF62 PUSH1 0x2B DUP4 PUSH2 0xBB8 JUMP JUMPDEST SWAP2 POP PUSH2 0xF6D DUP3 PUSH2 0xF06 JUMP JUMPDEST PUSH1 0x40 DUP3 ADD SWAP1 POP SWAP2 SWAP1 POP JUMP JUMPDEST PUSH1 0x0 PUSH1 0x20 DUP3 ADD SWAP1 POP DUP2 DUP2 SUB PUSH1 0x0 DUP4 ADD MSTORE PUSH2 0xF91 DUP2 PUSH2 0xF55 JUMP JUMPDEST SWAP1 POP SWAP2 SWAP1 POP JUMP JUMPDEST PUSH1 0x0 DUP2 PUSH1 0x0 SHR SWAP1 POP SWAP2 SWAP1 POP JUMP JUMPDEST PUSH1 0x0 DUP2 SWAP1 POP SWAP2 SWAP1 POP JUMP JUMPDEST PUSH1 0x0 PUSH2 0xFC2 PUSH2 0xFBD DUP4 PUSH2 0xF98 JUMP JUMPDEST PUSH2 0xFA5 JUMP JUMPDEST SWAP1 POP SWAP2 SWAP1 POP JUMP JUMPDEST PUSH2 0xFD2 DUP2 PUSH2 0x815 JUMP JUMPDEST DUP3 MSTORE POP POP JUMP JUMPDEST PUSH1 0xA0 DUP3 ADD PUSH1 0x0 DUP1 DUP4 ADD SLOAD SWAP1 POP PUSH2 0xFED DUP2 PUSH2 0xFAF JUMP JUMPDEST PUSH2 0xFFA PUSH1 0x0 DUP7 ADD DUP3 PUSH2 0xFC9 JUMP JUMPDEST POP PUSH1 0x1 DUP4 ADD SLOAD SWAP1 POP PUSH2 0x100B DUP2 PUSH2 0xFAF JUMP JUMPDEST PUSH2 0x1018 PUSH1 0x20 DUP7 ADD DUP3 PUSH2 0xFC9 JUMP JUMPDEST POP PUSH1 0x2 DUP4 ADD SLOAD SWAP1 POP PUSH2 0x1029 DUP2 PUSH2 0xFAF JUMP JUMPDEST PUSH2 0x1036 PUSH1 0x40 DUP7 ADD DUP3 PUSH2 0xFC9 JUMP JUMPDEST POP PUSH1 0x3 DUP4 ADD SLOAD SWAP1 POP PUSH2 0x1047 DUP2 PUSH2 0xFAF JUMP JUMPDEST PUSH2 0x1054 PUSH1 0x60 DUP7 ADD DUP3 PUSH2 0xFC9 JUMP JUMPDEST POP PUSH1 0x4 DUP4 ADD SLOAD SWAP1 POP PUSH2 0x1065 DUP2 PUSH2 0xFAF JUMP JUMPDEST PUSH2 0x1072 PUSH1 0x80 DUP7 ADD DUP3 PUSH2 0xFC9 JUMP JUMPDEST POP POP POP POP POP JUMP JUMPDEST PUSH1 0x0 PUSH1 0xA0 DUP3 ADD SWAP1 POP PUSH2 0x108E PUSH1 0x0 DUP4 ADD DUP5 PUSH2 0xFD8 JUMP JUMPDEST SWAP3 SWAP2 POP POP JUMP JUMPDEST PUSH1 0x0 DUP2 MLOAD SWAP1 POP SWAP2 SWAP1 POP JUMP JUMPDEST PUSH1 0x0 DUP3 DUP3 MSTORE PUSH1 0x20 DUP3 ADD SWAP1 POP SWAP3 SWAP2 POP POP JUMP JUMPDEST PUSH1 0x0 PUSH2 0x10BB DUP3 PUSH2 0x1094 JUMP JUMPDEST PUSH2 0x10C5 DUP2 DUP6 PUSH2 0x109F JUMP JUMPDEST SWAP4 POP PUSH2 0x10D5 DUP2 DUP6 PUSH1 0x20 DUP7 ADD PUSH2 0xCA6 JUMP JUMPDEST PUSH2 0x10DE DUP2 PUSH2 0x9F5 JUMP JUMPDEST DUP5 ADD SWAP2 POP POP SWAP3 SWAP2 POP POP JUMP JUMPDEST PUSH1 0x0 PUSH1 0x40 DUP3 ADD SWAP1 POP PUSH2 0x10FE PUSH1 0x0 DUP4 ADD DUP6 PUSH2 0x8AE JUMP JUMPDEST DUP2 DUP2 SUB PUSH1 0x20 DUP4 ADD MSTORE PUSH2 0x1110 DUP2 DUP5 PUSH2 0x10B0 JUMP JUMPDEST SWAP1 POP SWAP4 SWAP3 POP POP POP JUMP JUMPDEST PUSH32 0x4E487B7100000000000000000000000000000000000000000000000000000000 PUSH1 0x0 MSTORE PUSH1 0x11 PUSH1 0x4 MSTORE PUSH1 0x24 PUSH1 0x0 REVERT JUMPDEST PUSH1 0x0 PUSH2 0x1153 DUP3 PUSH2 0x815 JUMP JUMPDEST SWAP2 POP PUSH2 0x115E DUP4 PUSH2 0x815 JUMP JUMPDEST SWAP3 POP DUP3 DUP3 SUB SWAP1 POP DUP2 DUP2 GT ISZERO PUSH2 0x1176 JUMPI PUSH2 0x1175 PUSH2 0x1119 JUMP JUMPDEST JUMPDEST SWAP3 SWAP2 POP POP JUMP JUMPDEST PUSH32 0x4E487B7100000000000000000000000000000000000000000000000000000000 PUSH1 0x0 MSTORE PUSH1 0x12 PUSH1 0x4 MSTORE PUSH1 0x24 PUSH1 0x0 REVERT JUMPDEST PUSH1 0x0 PUSH2 0x11B6 DUP3 PUSH2 0x815 JUMP JUMPDEST SWAP2 POP PUSH2 0x11C1 DUP4 PUSH2 0x815 JUMP JUMPDEST SWAP3 POP DUP3 PUSH2 0x11D1 JUMPI PUSH2 0x11D0 PUSH2 0x117C JUMP JUMPDEST JUMPDEST DUP3 DUP3 DIV SWAP1 POP SWAP3 SWAP2 POP POP JUMP JUMPDEST PUSH1 0x0 PUSH2 0x11E7 DUP3 PUSH2 0x815 JUMP JUMPDEST SWAP2 POP PUSH2 0x11F2 DUP4 PUSH2 0x815 JUMP JUMPDEST SWAP3 POP DUP3 DUP3 ADD SWAP1 POP DUP1 DUP3 GT ISZERO PUSH2 0x120A JUMPI PUSH2 0x1209 PUSH2 0x1119 JUMP JUMPDEST JUMPDEST SWAP3 SWAP2 POP POP JUMP INVALID LOG2 PUSH5 0x6970667358 0x22 SLT KECCAK256 COINBASE PUSH6 0x1F5D7D01B359 0xEE 0xD8 PREVRANDAO JUMP KECCAK256 EXTCODEHASH 0xC2 0x2F 0xC4 0xC1 0x29 0xBF CALLDATALOAD 0xC0 0xDF SWAP3 0x4B MSTORE8 PUSH13 0xA3BDB65B3164736F6C63430008 SGT STOP CALLER "},"gasEstimates":{"creation":{"codeDepositCost":"935600","executionCost":"infinite","totalCost":"infinite"},"external":{"fulfillRandomness(uint256,bytes)":"infinite","lastRequestId()":"2537","latestRandomness()":"2430","nonce()":"2496","requestPending(uint256)":"6564","requestRandomness(bytes)":"infinite","requestedHash(uint256)":"2787","requests(uint256)":"infinite"},"internal":{"_fulfillRandomness(uint256,uint256,bytes memory)":"infinite","_operator()":"infinite"}},"methodIdentifiers":{"fulfillRandomness(uint256,bytes)":"b3f6b99a","lastRequestId()":"fc2a88c3","latestRandomness()":"3b5cd3a8","nonce()":"affed0e0","requestPending(uint256)":"75ce7fff","requestRandomness(bytes)":"e6dee7ed","requestedHash(uint256)":"c4f8f27b","requests(uint256)":"81d12c58"}},"storageLayout":{"storage":[{"astId":15,"contract":"contracts/gelato-vrf/SimpleVRFContract.sol:SimpleVRFContract","label":"requestPending","offset":0,"slot":"0","type":"t_array(t_bool)dyn_storage"},{"astId":19,"contract":"contracts/gelato-vrf/SimpleVRFContract.sol:SimpleVRFContract","label":"requestedHash","offset":0,"slot":"1","type":"t_mapping(t_uint256,t_bytes32)"},{"astId":277,"contract":"contracts/gelato-vrf/SimpleVRFContract.sol:SimpleVRFContract","label":"latestRandomness","offset":0,"slot":"2","type":"t_bytes32"},{"astId":279,"contract":"contracts/gelato-vrf/SimpleVRFContract.sol:SimpleVRFContract","label":"lastRequestId","offset":0,"slot":"3","type":"t_uint64"},{"astId":306,"contract":"contracts/gelato-vrf/SimpleVRFContract.sol:SimpleVRFContract","label":"requests","offset":0,"slot":"4","type":"t_mapping(t_uint256,t_struct(Request)290_storage)"},{"astId":308,"contract":"contracts/gelato-vrf/SimpleVRFContract.sol:SimpleVRFContract","label":"nonce","offset":0,"slot":"5","type":"t_uint256"}],"types":{"t_array(t_bool)dyn_storage":{"base":"t_bool","encoding":"dynamic_array","label":"bool[]","numberOfBytes":"32"},"t_bool":{"encoding":"inplace","label":"bool","numberOfBytes":"1"},"t_bytes32":{"encoding":"inplace","label":"bytes32","numberOfBytes":"32"},"t_mapping(t_uint256,t_bytes32)":{"encoding":"mapping","key":"t_uint256","label":"mapping(uint256 => bytes32)","numberOfBytes":"32","value":"t_bytes32"},"t_mapping(t_uint256,t_struct(Request)290_storage)":{"encoding":"mapping","key":"t_uint256","label":"mapping(uint256 => struct SimpleVRFContract.Request)","numberOfBytes":"32","value":"t_struct(Request)290_storage"},"t_struct(Request)290_storage":{"encoding":"inplace","label":"struct SimpleVRFContract.Request","members":[{"astId":281,"contract":"contracts/gelato-vrf/SimpleVRFContract.sol:SimpleVRFContract","label":"requestTime","offset":0,"slot":"0","type":"t_uint256"},{"astId":283,"contract":"contracts/gelato-vrf/SimpleVRFContract.sol:SimpleVRFContract","label":"requestBlock","offset":0,"slot":"1","type":"t_uint256"},{"astId":285,"contract":"contracts/gelato-vrf/SimpleVRFContract.sol:SimpleVRFContract","label":"fulfilledTime","offset":0,"slot":"2","type":"t_uint256"},{"astId":287,"contract":"contracts/gelato-vrf/SimpleVRFContract.sol:SimpleVRFContract","label":"fulfilledBlock","offset":0,"slot":"3","type":"t_uint256"},{"astId":289,"contract":"contracts/gelato-vrf/SimpleVRFContract.sol:SimpleVRFContract","label":"randomness","offset":0,"slot":"4","type":"t_uint256"}],"numberOfBytes":"160"},"t_uint256":{"encoding":"inplace","label":"uint256","numberOfBytes":"32"},"t_uint64":{"encoding":"inplace","label":"uint64","numberOfBytes":"8"}}},"userdoc":{"events":{"RequestedRandomness(uint256,bytes)":{"notice":"Event emitted when a randomness request is made."}},"kind":"user","methods":{"fulfillRandomness(uint256,bytes)":{"notice":"Callback function used by Gelato VRF to return the random number. The randomness is derived by hashing the provided randomness with the request ID."}},"version":1}}}}