{
  "address": "0x34DF3Ee0d65093C724563b7DE4B1523d5632928C",
  "abi": [
    {
      "inputs": [],
      "stateMutability": "nonpayable",
      "type": "constructor"
    },
    {
      "inputs": [
        {
          "internalType": "address",
          "name": "have",
          "type": "address"
        },
        {
          "internalType": "address",
          "name": "want",
          "type": "address"
        }
      ],
      "name": "OnlyCoordinatorCanFulfill",
      "type": "error"
    },
    {
      "anonymous": false,
      "inputs": [
        {
          "indexed": true,
          "internalType": "address",
          "name": "previousOwner",
          "type": "address"
        },
        {
          "indexed": true,
          "internalType": "address",
          "name": "newOwner",
          "type": "address"
        }
      ],
      "name": "OwnershipTransferred",
      "type": "event"
    },
    {
      "anonymous": false,
      "inputs": [
        {
          "indexed": true,
          "internalType": "uint256",
          "name": "nonce",
          "type": "uint256"
        },
        {
          "components": [
            {
              "internalType": "uint256",
              "name": "requestTime",
              "type": "uint256"
            },
            {
              "internalType": "uint256",
              "name": "requestBlock",
              "type": "uint256"
            },
            {
              "internalType": "uint256",
              "name": "fulfilledTime",
              "type": "uint256"
            },
            {
              "internalType": "uint256",
              "name": "fulfilledBlock",
              "type": "uint256"
            },
            {
              "internalType": "uint256",
              "name": "randomness",
              "type": "uint256"
            }
          ],
          "indexed": false,
          "internalType": "struct SimpleCLVRFContract.Request",
          "name": "",
          "type": "tuple"
        }
      ],
      "name": "RandomnessFulfilled",
      "type": "event"
    },
    {
      "inputs": [],
      "name": "nonce",
      "outputs": [
        {
          "internalType": "uint256",
          "name": "",
          "type": "uint256"
        }
      ],
      "stateMutability": "view",
      "type": "function"
    },
    {
      "inputs": [],
      "name": "owner",
      "outputs": [
        {
          "internalType": "address",
          "name": "",
          "type": "address"
        }
      ],
      "stateMutability": "view",
      "type": "function"
    },
    {
      "inputs": [
        {
          "internalType": "uint256",
          "name": "requestId",
          "type": "uint256"
        },
        {
          "internalType": "uint256[]",
          "name": "randomWords",
          "type": "uint256[]"
        }
      ],
      "name": "rawFulfillRandomWords",
      "outputs": [],
      "stateMutability": "nonpayable",
      "type": "function"
    },
    {
      "inputs": [],
      "name": "renounceOwnership",
      "outputs": [],
      "stateMutability": "nonpayable",
      "type": "function"
    },
    {
      "inputs": [],
      "name": "requestId",
      "outputs": [
        {
          "internalType": "uint256",
          "name": "",
          "type": "uint256"
        }
      ],
      "stateMutability": "view",
      "type": "function"
    },
    {
      "inputs": [],
      "name": "requestRandomWords",
      "outputs": [],
      "stateMutability": "nonpayable",
      "type": "function"
    },
    {
      "inputs": [
        {
          "internalType": "uint256",
          "name": "",
          "type": "uint256"
        }
      ],
      "name": "requests",
      "outputs": [
        {
          "internalType": "uint256",
          "name": "requestTime",
          "type": "uint256"
        },
        {
          "internalType": "uint256",
          "name": "requestBlock",
          "type": "uint256"
        },
        {
          "internalType": "uint256",
          "name": "fulfilledTime",
          "type": "uint256"
        },
        {
          "internalType": "uint256",
          "name": "fulfilledBlock",
          "type": "uint256"
        },
        {
          "internalType": "uint256",
          "name": "randomness",
          "type": "uint256"
        }
      ],
      "stateMutability": "view",
      "type": "function"
    },
    {
      "inputs": [
        {
          "internalType": "address",
          "name": "_vrfCoordinator",
          "type": "address"
        }
      ],
      "name": "setCoordinator",
      "outputs": [],
      "stateMutability": "nonpayable",
      "type": "function"
    },
    {
      "inputs": [
        {
          "internalType": "uint32",
          "name": "_numWords",
          "type": "uint32"
        }
      ],
      "name": "setNumWords",
      "outputs": [],
      "stateMutability": "nonpayable",
      "type": "function"
    },
    {
      "inputs": [
        {
          "internalType": "address",
          "name": "newOwner",
          "type": "address"
        }
      ],
      "name": "transferOwnership",
      "outputs": [],
      "stateMutability": "nonpayable",
      "type": "function"
    },
    {
      "inputs": [],
      "name": "vrfCoordinator",
      "outputs": [
        {
          "internalType": "address",
          "name": "",
          "type": "address"
        }
      ],
      "stateMutability": "view",
      "type": "function"
    }
  ],
  "transactionHash": "0x7d67c8a83f102667fa2285ea13b1d1029fc0073a464d15b9a46d7444398d2464",
  "args": [],
  "numDeployments": 1,
  "solcInputHash": "5df0a86a1414de1014a6d5844465c0de",
  "bytecode": "0x60806040526103ea600260146101000a81548167ffffffffffffffff021916908367ffffffffffffffff16021790555073ae975071be8f8ee67addbc1a82488f1c24858067600360006101000a81548173ffffffffffffffffffffffffffffffffffffffff021916908373ffffffffffffffffffffffffffffffffffffffff1602179055507fcc294a196eeeb44da2888d17c0625cc88d70d9760a69d58d853ba6581a9ab0cd60001b600455620493e0600560006101000a81548163ffffffff021916908363ffffffff1602179055506003600560046101000a81548161ffff021916908361ffff16021790555060058060066101000a81548163ffffffff021916908363ffffffff16021790555034801561011a57600080fd5b5060008054906101000a900473ffffffffffffffffffffffffffffffffffffffff16806000806101000a81548173ffffffffffffffffffffffffffffffffffffffff021916908373ffffffffffffffffffffffffffffffffffffffff1602179055505061019961018e6101ff60201b60201c565b61020760201b60201c565b60008054906101000a900473ffffffffffffffffffffffffffffffffffffffff16600260006101000a81548173ffffffffffffffffffffffffffffffffffffffff021916908373ffffffffffffffffffffffffffffffffffffffff1602179055506102cd565b600033905090565b6000600160009054906101000a900473ffffffffffffffffffffffffffffffffffffffff16905081600160006101000a81548173ffffffffffffffffffffffffffffffffffffffff021916908373ffffffffffffffffffffffffffffffffffffffff1602179055508173ffffffffffffffffffffffffffffffffffffffff168173ffffffffffffffffffffffffffffffffffffffff167f8be0079c531659141344cd1fd0a4f28419497f9722a3daafe3b4186f6b6457e060405160405180910390a35050565b610fcd806102dc6000396000f3fe608060405234801561001057600080fd5b50600436106100a85760003560e01c80638ea98117116100715780638ea9811714610143578063a3e56fa81461015f578063affed0e01461017d578063e0c862891461019b578063f2fde38b146101a5578063f30c07d3146101c1576100a8565b80626d6cae146100ad5780631fe543e3146100cb578063715018a6146100e757806381d12c58146100f15780638da5cb5b14610125575b600080fd5b6100b56101dd565b6040516100c29190610830565b60405180910390f35b6100e560048036038101906100e091906109e4565b6101e3565b005b6100ef6102a3565b005b61010b60048036038101906101069190610a40565b6102b7565b60405161011c959493929190610a6d565b60405180910390f35b61012d6102ed565b60405161013a9190610b01565b60405180910390f35b61015d60048036038101906101589190610b48565b610317565b005b61016761038c565b6040516101749190610b01565b60405180910390f35b6101856103b0565b6040516101929190610830565b60405180910390f35b6101a36103b6565b005b6101bf60048036038101906101ba9190610b48565b6103c0565b005b6101db60048036038101906101d69190610bb1565b610443565b005b60065481565b60008054906101000a900473ffffffffffffffffffffffffffffffffffffffff1673ffffffffffffffffffffffffffffffffffffffff163373ffffffffffffffffffffffffffffffffffffffff1614610295573360008054906101000a900473ffffffffffffffffffffffffffffffffffffffff166040517f1cf993f400000000000000000000000000000000000000000000000000000000815260040161028c929190610bde565b60405180910390fd5b61029f828261046f565b5050565b6102ab610574565b6102b560006105f2565b565b60086020528060005260406000206000915090508060000154908060010154908060020154908060030154908060040154905085565b6000600160009054906101000a900473ffffffffffffffffffffffffffffffffffffffff16905090565b61031f610574565b610328816106b8565b60008054906101000a900473ffffffffffffffffffffffffffffffffffffffff16600260006101000a81548173ffffffffffffffffffffffffffffffffffffffff021916908373ffffffffffffffffffffffffffffffffffffffff16021790555050565b60008054906101000a900473ffffffffffffffffffffffffffffffffffffffff1681565b60075481565b6103be6106fb565b565b6103c8610574565b600073ffffffffffffffffffffffffffffffffffffffff168173ffffffffffffffffffffffffffffffffffffffff1603610437576040517f08c379a000000000000000000000000000000000000000000000000000000000815260040161042e90610c8a565b60405180910390fd5b610440816105f2565b50565b61044b610574565b80600560066101000a81548163ffffffff021916908363ffffffff16021790555050565b6000600160148360008151811061048957610488610caa565b5b602002602001015161049b9190610d08565b6104a59190610d68565b905060006040518060a00160405280428152602001438152602001428152602001438152602001846000815181106104e0576104df610caa565b5b6020026020010151815250905080600860004381526020019081526020016000206000820151816000015560208201518160010155604082015181600201556060820151816003015560808201518160040155905050437f2e15cbd9321328285463961320a9cdba3de05a17e577e72e4c34cbeca629b189826040516105669190610e13565b60405180910390a250505050565b61057c61080f565b73ffffffffffffffffffffffffffffffffffffffff1661059a6102ed565b73ffffffffffffffffffffffffffffffffffffffff16146105f0576040517f08c379a00000000000000000000000000000000000000000000000000000000081526004016105e790610e7a565b60405180910390fd5b565b6000600160009054906101000a900473ffffffffffffffffffffffffffffffffffffffff16905081600160006101000a81548173ffffffffffffffffffffffffffffffffffffffff021916908373ffffffffffffffffffffffffffffffffffffffff1602179055508173ffffffffffffffffffffffffffffffffffffffff168173ffffffffffffffffffffffffffffffffffffffff167f8be0079c531659141344cd1fd0a4f28419497f9722a3daafe3b4186f6b6457e060405160405180910390a35050565b806000806101000a81548173ffffffffffffffffffffffffffffffffffffffff021916908373ffffffffffffffffffffffffffffffffffffffff16021790555050565b600260009054906101000a900473ffffffffffffffffffffffffffffffffffffffff1673ffffffffffffffffffffffffffffffffffffffff16635d3b1d30600454600260149054906101000a900467ffffffffffffffff16600560049054906101000a900461ffff16600560009054906101000a900463ffffffff16600560069054906101000a900463ffffffff166040518663ffffffff1660e01b81526004016107aa959493929190610f02565b6020604051808303816000875af11580156107c9573d6000803e3d6000fd5b505050506040513d601f19601f820116820180604052508101906107ed9190610f6a565b6006819055506001600760008282546108069190610d68565b92505081905550565b600033905090565b6000819050919050565b61082a81610817565b82525050565b60006020820190506108456000830184610821565b92915050565b6000604051905090565b600080fd5b600080fd5b61086881610817565b811461087357600080fd5b50565b6000813590506108858161085f565b92915050565b600080fd5b6000601f19601f8301169050919050565b7f4e487b7100000000000000000000000000000000000000000000000000000000600052604160045260246000fd5b6108d982610890565b810181811067ffffffffffffffff821117156108f8576108f76108a1565b5b80604052505050565b600061090b61084b565b905061091782826108d0565b919050565b600067ffffffffffffffff821115610937576109366108a1565b5b602082029050602081019050919050565b600080fd5b600061096061095b8461091c565b610901565b9050808382526020820190506020840283018581111561098357610982610948565b5b835b818110156109ac57806109988882610876565b845260208401935050602081019050610985565b5050509392505050565b600082601f8301126109cb576109ca61088b565b5b81356109db84826020860161094d565b91505092915050565b600080604083850312156109fb576109fa610855565b5b6000610a0985828601610876565b925050602083013567ffffffffffffffff811115610a2a57610a2961085a565b5b610a36858286016109b6565b9150509250929050565b600060208284031215610a5657610a55610855565b5b6000610a6484828501610876565b91505092915050565b600060a082019050610a826000830188610821565b610a8f6020830187610821565b610a9c6040830186610821565b610aa96060830185610821565b610ab66080830184610821565b9695505050505050565b600073ffffffffffffffffffffffffffffffffffffffff82169050919050565b6000610aeb82610ac0565b9050919050565b610afb81610ae0565b82525050565b6000602082019050610b166000830184610af2565b92915050565b610b2581610ae0565b8114610b3057600080fd5b50565b600081359050610b4281610b1c565b92915050565b600060208284031215610b5e57610b5d610855565b5b6000610b6c84828501610b33565b91505092915050565b600063ffffffff82169050919050565b610b8e81610b75565b8114610b9957600080fd5b50565b600081359050610bab81610b85565b92915050565b600060208284031215610bc757610bc6610855565b5b6000610bd584828501610b9c565b91505092915050565b6000604082019050610bf36000830185610af2565b610c006020830184610af2565b9392505050565b600082825260208201905092915050565b7f4f776e61626c653a206e6577206f776e657220697320746865207a65726f206160008201527f6464726573730000000000000000000000000000000000000000000000000000602082015250565b6000610c74602683610c07565b9150610c7f82610c18565b604082019050919050565b60006020820190508181036000830152610ca381610c67565b9050919050565b7f4e487b7100000000000000000000000000000000000000000000000000000000600052603260045260246000fd5b7f4e487b7100000000000000000000000000000000000000000000000000000000600052601260045260246000fd5b6000610d1382610817565b9150610d1e83610817565b925082610d2e57610d2d610cd9565b5b828206905092915050565b7f4e487b7100000000000000000000000000000000000000000000000000000000600052601160045260246000fd5b6000610d7382610817565b9150610d7e83610817565b9250828201905080821115610d9657610d95610d39565b5b92915050565b610da581610817565b82525050565b60a082016000820151610dc16000850182610d9c565b506020820151610dd46020850182610d9c565b506040820151610de76040850182610d9c565b506060820151610dfa6060850182610d9c565b506080820151610e0d6080850182610d9c565b50505050565b600060a082019050610e286000830184610dab565b92915050565b7f4f776e61626c653a2063616c6c6572206973206e6f7420746865206f776e6572600082015250565b6000610e64602083610c07565b9150610e6f82610e2e565b602082019050919050565b60006020820190508181036000830152610e9381610e57565b9050919050565b6000819050919050565b610ead81610e9a565b82525050565b600067ffffffffffffffff82169050919050565b610ed081610eb3565b82525050565b600061ffff82169050919050565b610eed81610ed6565b82525050565b610efc81610b75565b82525050565b600060a082019050610f176000830188610ea4565b610f246020830187610ec7565b610f316040830186610ee4565b610f3e6060830185610ef3565b610f4b6080830184610ef3565b9695505050505050565b600081519050610f648161085f565b92915050565b600060208284031215610f8057610f7f610855565b5b6000610f8e84828501610f55565b9150509291505056fea2646970667358221220fc058b5542c4412274b5b8ac32205466fee3166be463e7d655474e002e67b9da64736f6c63430008130033",
  "devdoc": {
    "kind": "dev",
    "methods": {
      "owner()": {
        "details": "Returns the address of the current owner."
      },
      "renounceOwnership()": {
        "details": "Leaves the contract without owner. It will not be possible to call `onlyOwner` functions. Can only be called by the current owner. NOTE: Renouncing ownership will leave the contract without an owner, thereby disabling any functionality that is only available to the owner."
      },
      "transferOwnership(address)": {
        "details": "Transfers ownership of the contract to a new account (`newOwner`). Can only be called by the current owner."
      }
    },
    "version": 1
  },
  "userdoc": {
    "kind": "user",
    "methods": {},
    "version": 1
  },
  "storageLayout": {
    "storage": [
      {
        "astId": 323,
        "contract": "contracts/gelato-vrf-cl-compatible/SimpleCLVRFContract.sol:SimpleCLVRFContract",
        "label": "vrfCoordinator",
        "offset": 0,
        "slot": "0",
        "type": "t_address"
      },
      {
        "astId": 7,
        "contract": "contracts/gelato-vrf-cl-compatible/SimpleCLVRFContract.sol:SimpleCLVRFContract",
        "label": "_owner",
        "offset": 0,
        "slot": "1",
        "type": "t_address"
      },
      {
        "astId": 146,
        "contract": "contracts/gelato-vrf-cl-compatible/SimpleCLVRFContract.sol:SimpleCLVRFContract",
        "label": "COORDINATOR",
        "offset": 0,
        "slot": "2",
        "type": "t_contract(VRFCoordinatorV2Interface)484"
      },
      {
        "astId": 149,
        "contract": "contracts/gelato-vrf-cl-compatible/SimpleCLVRFContract.sol:SimpleCLVRFContract",
        "label": "s_subscriptionId",
        "offset": 20,
        "slot": "2",
        "type": "t_uint64"
      },
      {
        "astId": 152,
        "contract": "contracts/gelato-vrf-cl-compatible/SimpleCLVRFContract.sol:SimpleCLVRFContract",
        "label": "localVrfCoordinator",
        "offset": 0,
        "slot": "3",
        "type": "t_address"
      },
      {
        "astId": 155,
        "contract": "contracts/gelato-vrf-cl-compatible/SimpleCLVRFContract.sol:SimpleCLVRFContract",
        "label": "s_keyHash",
        "offset": 0,
        "slot": "4",
        "type": "t_bytes32"
      },
      {
        "astId": 158,
        "contract": "contracts/gelato-vrf-cl-compatible/SimpleCLVRFContract.sol:SimpleCLVRFContract",
        "label": "callbackGasLimit",
        "offset": 0,
        "slot": "5",
        "type": "t_uint32"
      },
      {
        "astId": 161,
        "contract": "contracts/gelato-vrf-cl-compatible/SimpleCLVRFContract.sol:SimpleCLVRFContract",
        "label": "requestConfirmations",
        "offset": 4,
        "slot": "5",
        "type": "t_uint16"
      },
      {
        "astId": 164,
        "contract": "contracts/gelato-vrf-cl-compatible/SimpleCLVRFContract.sol:SimpleCLVRFContract",
        "label": "numWords",
        "offset": 6,
        "slot": "5",
        "type": "t_uint32"
      },
      {
        "astId": 166,
        "contract": "contracts/gelato-vrf-cl-compatible/SimpleCLVRFContract.sol:SimpleCLVRFContract",
        "label": "requestId",
        "offset": 0,
        "slot": "6",
        "type": "t_uint256"
      },
      {
        "astId": 186,
        "contract": "contracts/gelato-vrf-cl-compatible/SimpleCLVRFContract.sol:SimpleCLVRFContract",
        "label": "nonce",
        "offset": 0,
        "slot": "7",
        "type": "t_uint256"
      },
      {
        "astId": 191,
        "contract": "contracts/gelato-vrf-cl-compatible/SimpleCLVRFContract.sol:SimpleCLVRFContract",
        "label": "requests",
        "offset": 0,
        "slot": "8",
        "type": "t_mapping(t_uint256,t_struct(Request)177_storage)"
      }
    ],
    "types": {
      "t_address": {
        "encoding": "inplace",
        "label": "address",
        "numberOfBytes": "20"
      },
      "t_bytes32": {
        "encoding": "inplace",
        "label": "bytes32",
        "numberOfBytes": "32"
      },
      "t_contract(VRFCoordinatorV2Interface)484": {
        "encoding": "inplace",
        "label": "contract VRFCoordinatorV2Interface",
        "numberOfBytes": "20"
      },
      "t_mapping(t_uint256,t_struct(Request)177_storage)": {
        "encoding": "mapping",
        "key": "t_uint256",
        "label": "mapping(uint256 => struct SimpleCLVRFContract.Request)",
        "numberOfBytes": "32",
        "value": "t_struct(Request)177_storage"
      },
      "t_struct(Request)177_storage": {
        "encoding": "inplace",
        "label": "struct SimpleCLVRFContract.Request",
        "members": [
          {
            "astId": 168,
            "contract": "contracts/gelato-vrf-cl-compatible/SimpleCLVRFContract.sol:SimpleCLVRFContract",
            "label": "requestTime",
            "offset": 0,
            "slot": "0",
            "type": "t_uint256"
          },
          {
            "astId": 170,
            "contract": "contracts/gelato-vrf-cl-compatible/SimpleCLVRFContract.sol:SimpleCLVRFContract",
            "label": "requestBlock",
            "offset": 0,
            "slot": "1",
            "type": "t_uint256"
          },
          {
            "astId": 172,
            "contract": "contracts/gelato-vrf-cl-compatible/SimpleCLVRFContract.sol:SimpleCLVRFContract",
            "label": "fulfilledTime",
            "offset": 0,
            "slot": "2",
            "type": "t_uint256"
          },
          {
            "astId": 174,
            "contract": "contracts/gelato-vrf-cl-compatible/SimpleCLVRFContract.sol:SimpleCLVRFContract",
            "label": "fulfilledBlock",
            "offset": 0,
            "slot": "3",
            "type": "t_uint256"
          },
          {
            "astId": 176,
            "contract": "contracts/gelato-vrf-cl-compatible/SimpleCLVRFContract.sol:SimpleCLVRFContract",
            "label": "randomness",
            "offset": 0,
            "slot": "4",
            "type": "t_uint256"
          }
        ],
        "numberOfBytes": "160"
      },
      "t_uint16": {
        "encoding": "inplace",
        "label": "uint16",
        "numberOfBytes": "2"
      },
      "t_uint256": {
        "encoding": "inplace",
        "label": "uint256",
        "numberOfBytes": "32"
      },
      "t_uint32": {
        "encoding": "inplace",
        "label": "uint32",
        "numberOfBytes": "4"
      },
      "t_uint64": {
        "encoding": "inplace",
        "label": "uint64",
        "numberOfBytes": "8"
      }
    }
  }
}